1073860426SOUTHWEST GEORGIA             7840201PELHAM CITY                        PELHAM CITY MIDDLE SCHOOL          6TH PATHWAYS ELA        Pallen      Todd        J  0608252004M20000000000100000000   0000000     0          000000     0                                                     10    11  A11E                              0000     000     0000     000                      0                100100100000000          100100100000000          000000000000000          000000000000000               0        407120 427387   700 700L  600L  750L  11111   1    11      3 01-2211               415115 430400  11111   2008-3932                                                                                                               Spring 2017    0403171 MAINX                    5363691             522852954           522853090                                                   11621775            13083753                                                    500044876           500044876           500044880                                                   784       884                                                                                                                                                      
8091876939SOUTHWEST GEORGIA             7840201PELHAM CITY                        PELHAM CITY MIDDLE SCHOOL          7TH PATHWAYS ELA        REDS        Kyle        C  0706122002M50000000000010000000   0000000     0          000000     0                                                     10    11  A1 E                              0000     000     0000     000                      0                100110100100000          100110100100000          000000000000000          000000000000000               0        402119 421383   680 680L  580L  730L  11211   1    11      6 02-1617               458115 473443  11111   7 01-3619                                                                                                               Spring 2017    0403171 MAINX                    5620601             522853746           522853814                                                   11833419            12669317                                                    500044896           500044896           500044900                                                   784       884                                                                                                                                                      
6968648938SOUTHWEST GEORGIA             7840201PELHAM CITY                        PELHAM CITY MIDDLE SCHOOL          ROSA    , Patty         Williams    Asha        J  0601282005F20000000000000000000   0000000     0          000000     0                                                     00    11  A1 P                              0000     000     0000     000                      0                000000000000000          000000000000000          000000000000000          000000000000000               0        460118 478442   770 770L  670L  820L  11122   2    11      3 01-2211               482211 493471  11111   3420-5241                                                                                                               Spring 2017    0403171 MAINX                    5363599             5099043             5099043                                                     13641571            13641573                                                    487179              487179              487181                                                      784       884                                                                                                                                                      
5060140695SOUTHWEST GEORGIA             7840201PELHAM CITY                        PELHAM CITY MIDDLE SCHOOL          ROSA    , Patty         Marks       Tayler      L  0605022005F20000000000000000000   0000000     0          000000     0                                                     00    11  A1 P                              0000     000     0000     000                      0                000000000000000          000000000000000          000000000000000          000000000000000               01       443119 462424   735 735L  635L  785L  11122   1    11      9 02-2722               479211 490468  11112   1002-3123                                                                                                               Spring 2017    0403171 MAINX                    5363601             5099045             5099045                                                     13641575            13641577                                                    487179              487179              487181                                                      784       884                                                                                                                                                      
7448168851SOUTHWEST GEORGIA             7840201PELHAM CITY                        PELHAM CITY MIDDLE SCHOOL          ROSA    , Patty         Rozy        David       B  0611142004F20000000000000000000   0000000     0          000000     0                                                     00    11  A1 P                              0000     000     0000     000                      0                000000000000000          000000000000000          000000000000000          000000000000000               01       510219 529491   960 960L  860L  1010L 22122   2    12      4833-6449               518212 530506  21312   6854-8160                                                                                                               Spring 2017    0403171 MAINX                    5363603             5099047             5099047                                                     13641579            13641581                                                    487179              487179              487181                                                      784       884                                                                                                                                                      
8677579869SOUTHWEST GEORGIA             7840201PELHAM CITY                        PELHAM CITY MIDDLE SCHOOL          ROSA    , Patty         Davis       Tara        S  0611222004F20000000000000000000   0000000     0          000000     0                                                     00    11  A1 P                              0000     000     0000     000                      0                000000000000000          000000000000000          000000000000000          000000000000000               0        499219 518480   10651065L 965L  1115L 22121   1    21      5640-7153               492211 503481  11112   3117-5040                                                                                                               Spring 2017    0403171 MAINX                    5363615             5099049             5099049                                                     13641583            13641585                                                    487179              487179              487181                                                      784       884                                                                                                                                                      
2506561501SOUTHWEST GEORGIA             7840201PELHAM CITY                        PELHAM CITY MIDDLE SCHOOL          ROSA    , Patty         Davids      Sam         X  0606022005M20000000000000000000   0000000     0          000000     0                                                     00    11  A1 P                              0000     000     0000     000                      0                000000000000000          000000000000000          000000000000000          000000000000000               0        449119 468430   770 770L  670L  820L  11122   2    11      5 01-2316               489211 500478  21111   4530-6247                                                                                                               Spring 2017    0403171 MAINX                    5363623             5099051             5099051                                                     13641587            13641589                                                    487179              487179              487181                                                      784       884                                                                                                                                                      
5448372031SOUTHWEST GEORGIA             7840201PELHAM CITY                        PELHAM CITY MIDDLE SCHOOL          ROSA    , Patty         Cox         Laura          0609012005F30000000000000000001   0000000     0          000000     0                                                     00    11  A1 P                              0000     000     0000     000                      0                000000000000000          000000000000000          000000000000000          000000000000000               0        516219 535497   990 990L  890L  1040L 22122   3    12      2714-4437               511211 522500  11212   4025-5845                                                                                                               Spring 2017    0403171 MAINX                    5363631             5099053             5099053                                                     13641591            13641593                                                    487179              487179              487181                                                      784       884                                                                                                                                                      
5192234077SOUTHWEST GEORGIA             7840201PELHAM CITY                        PELHAM CITY MIDDLE SCHOOL          ROSA    , Patty         Brown       Sara        L  0610062004F50000000001000000000   0000000     0          000000     0                                                     10    11  A1 P                              0000     000     0000     000                      0                000000000000000          000000000000000          000000000000000          000000000000000               0        471118 489453   830 830L  730L  880L  11122   2    11      9 02-2722               495211 506484  11111   4731-6449                                                                                                               Spring 2017    0403171 MAINX                    5363647             5099055             5099055                                                     13641595            13641597                                                    487179              487179              487181                                                      784       884                                                                                                                                                      
7208757402SOUTHWEST GEORGIA             7840201PELHAM CITY                        PELHAM CITY MIDDLE SCHOOL          ROSA    , Patty         Brown       Jess        A  0607192005F20000000000000000000   0000000     0          000000     0                                                     00    11  A1 P                              0000     000     0000     000                      0                000000000000000          000000000000000          000000000000000          000000000000000               01       443119 462424   800 800L  700L  850L  11122   1    11      8 02-2520               469112 481457  11111   2815-4738                                                                                                               Spring 2017    0403171 MAINX                    5363649             6671265             6671265                                                     13642019            13642021                                                    487179              487179              487181                                                      784       884                                                                                                                                                      