5801732004SOUTHWEST GEORGIA             6470299DOUGHERTY COUNTY                   Bill Richards                      NROZY                   Rozwell     Mike        G  0308262006M2000000000000000000000000000000000000000000 01111 01P                                        0   0     0   0     0   0     00   0     0000000000000000000000000      4481 18466430 380  380L  280L  430L311  1 1       2516-3836               4982 115094871111    5541-6953               5222 12534510212     5336-6952               5052 125174931211    3019-4639               SPRING 2015    0330151MAINX                    5N3BDGSTV0A8RPP9HL1DNN5DA6 4M201538002050016539020000068647      884  003      P  030000029647  0299              P  040000802647  0299                                                                                                              X
3478708621SOUTHWEST GEORGIA             6470299DOUGHERTY COUNTY                   Bill Richards                      NROZY                   Colts       Asha        A030303302006F2000000000000000000000000000000000000000010 01111 02P                                        0   0     0   0     0   0     00   0     0000000000000000000000001      4071 20427387 230  230L  130L  280L221  1 1        101-14 1               4481 134614351111     502-1215               4551 12467443111     1709-2930               4491 124614371111     603-1217               SPRING 2015    0330151MAINX                    N3UEQEIBCKEM9QC9EVRBMEMIC6 4M201538002050016534020000068647      884  003      P  030000029647  0299              P  040000802647  0299                                                                                                              X
4393402294SOUTHWEST GEORGIA             6470299DOUGHERTY COUNTY                   Bill Richards                      NROZY                   Olson       Steve       D030309142003M2000000000100000000000000000000000000000110 01111 03P                                        0   0     0   0     0   0     00   0     0000000000000000000000001      4601 18478442 520  520L  420L  570L200AA0B2       3120-4540               4762 114874651111     803-1620               4631 12475451111      603-1318               4581 114694471111    1408-2328               SPRING 2015    0330151MAINX                    ILT1UHSD90MJBMT95Q8D3AE8R4 4M201538002050016520020000068647      884  003      P  030000029647  0299              P  040000802647  0299                                                                                                              X
5065263078SOUTHWEST GEORGIA             6470299DOUGHERTY COUNTY                   Bill Richards                      NROZY                   Rozt        Shida       Q030307032006F2000000000000000000000000000000000000000010 01111 04P                                        0   0     0   0     0   0     00   0     0000000000000000000000001      4271 19446408 215  215L  115L  265L211  1 1        101-14 1               4681 124804561111    1206-2225               4301 13443417111      301-0610               4701 114814591111    1308-2126               SPRING 2015    0330151MAINX                    U6QTLFO01BG8ALT91USJEFVTT4 4M201538002050016537020000068647      884  003      P  030000029647  0299              P  040000802647  0299                                                                                                              X
9491612433SOUTHWEST GEORGIA             6470299DOUGHERTY COUNTY                   Bill Richards                      NROZY                   Coxx        Jessica     C030311292004F2000000000000000000000000000000000000000000 01111 05P                                        0   0     0   0     0   0     00   0     0000000000000000000000000      5132 18531495 730  730L  630L  780L300AA1 2       2415-3735               5042 115154931112    4026-5545               5072 12519495111     8367-9270               5122 125245001113    8261-9170               SPRING 2015    0330151MAINX                    8L2QS65OR4GGR3C8G905SR1AN3 4M201538002050016527020000068647      884  003      P  030000029647  0299              P  040000802647  0299                                                                                                              X
5389071425SOUTHWEST GEORGIA             6470299DOUGHERTY COUNTY                   Bill Richards                      NROZY                   Dune        Tara        D030305212004M2000000000000000000000000000000000000000010 01111 06P                                        0   0     0   0     0   0     00   0     0000000000000000000000001      4051 20425385 215  215L  115L  265L211  1 1        101-14 1               4892 115004781111    1810-3031               4651 12477453111      301-06 9               4261 134394131111     101-07 1               SPRING 2015    0330151MAINX                    C6SRRJISDLRJ9ND938DHJPT263 4M201538002050016522020000068647      884  003      P  030000029647  0299              P  040000802647  0299                                                                                                              X
4116185914SOUTHWEST GEORGIA             6470299DOUGHERTY COUNTY                   Bill Richards                      NROZY                   Davids      Zach        J030307072004M2000000000000000000000000000000000000000010 01111 07P                                        0   0     0   0     0   0     00   0     0000000000000000000000001      4301 19449411 390  390L  290L  440L311  1 1       1810-2930               4792 114904681111    1709-2930               4521 12464440111     1206-2225               4471 124594351111     804-1621               SPRING 2015    0330151MAINX                    9BNJC22Q6AHUBLO9T1UG3URR02 4M201538002050016523020000068647      884  003      P  030000029647  0299              P  040000802647  0299                                                                                                              X
5605782258SOUTHWEST GEORGIA             6470299DOUGHERTY COUNTY                   Bill Richards                      NROZY                   Williams    Sara        T030306182006M2000000000000000000000000000000000000000010 01111 08P                                        0   0     0   0     0   0     00   0     0000000000000000000000001      3181 31349287 125  125L   25L  175L200AA0A1        703-1619               4561 124684441111     201-08 8               4551 12467443111      905-1822               4451 124574331111     402-1014               SPRING 2015    0330151MAINX                    QJDSAKFBK6AN9KI8FP1IM5P1N5 4M201538002050016536020000068647      884  003      P  030000029647  0299              P  040000802647  0299                                                                                                              X
7169662442SOUTHWEST GEORGIA             6470299DOUGHERTY COUNTY                   Bill Richards                      NROZY                   Williams    Nick        K030311172004M2000000000000000000000000000000000000000010 01111 09P                                        0   0     0   0     0   0     00   0     0000000000000000000000000      3951 21416374 345  345L  245L  395L300AA0A1        101-14 1               4361 144504221111     101-08 1               4932 12505481111     1106-2124               4361 124484241111     402-1014               SPRING 2015    0330151MAINX                    0UKFJFMFQ3B9B268TGDA3HQ8F1 4M201538002050016526020000068647      884  003      P  030000029647  0299              P  040000802647  0299                                                                                                              X
4256652582SOUTHWEST GEORGIA             6470299DOUGHERTY COUNTY                   Bill Richards                      NROZY                   Pallen      Sara         030308252006F2000000000000000000000000000000000000000010 01111 10P                                        0   0     0   0     0   0     00   0     0000000000000000000000001      4141 20434394 275  275L  175L  325L300AA1 1        602-1417               4792 124914671111    1911-3132               4621 12474450111     1005-1822               4631 114744521111     302-0810               SPRING 2015    0330151MAINX                    3D65L86R0L2JQOI8SIUAR2CHU1 4M201538002050016538020000068647      884  003      P  030000029647  0299              P  040000802647  0299                                                                                                              X