9441109274Southwest Georgia             6471050DOUGHERTY COUNTY                   ALBANY HIGH SCHOOL                 SUMMER 9TH GR. LIT.     Cox         Todd         09  07212000M200000000000000 0000  31000000000 00   B2 E     0                                               0000     00000000000000Ninth Grade Literature & Composition01    450114 46443661 900 900L  800L 950L 211  0A1                                                       111      2312-3935               SUMMER 2017    0619173 MAINX                    500112274           528088096           15711357            500127602           647       88401
4041913179Southwest Georgia             6471050DOUGHERTY COUNTY                   ALBANY HIGH SCHOOL                 SUMMER 9TH GR. LIT.     Dune        Ryan         09  06192001F200000000000000 0000  31000000000 00   A1 E     0                                               0000     00000000000000Ninth Grade Literature & Composition01    454114 46844062 10051005L 905L 1055L111  0B1                                                       111      3522-5142               SUMMER 2017    0619173 MAINX                    500112278           528088104           15712295            500127602           647       88401
1650032218Southwest Georgia             6471050DOUGHERTY COUNTY                   ALBANY HIGH SCHOOL                 SUMMER 9TH GR. LIT.     Brown       Jessica      09  02152001F200000000000000 0000  31000000000 00   B2 E     0                                               0000     00000000000000Ninth Grade Literature & Composition01    499214 51348573 14251425L 1325L1475L211  1 3                                                       231      1507-3028               SUMMER 2017    0619173 MAINX                    500112284           528088112           15712297            500127602           647       88401
6019602184Southwest Georgia             6471050DOUGHERTY COUNTY                   ALBANY HIGH SCHOOL                 SUMMER 9TH GR. LIT.     Pallen      Sara         09  04092002F200000000000000 0000  31000000000 00   B2 E     0                                               0000     00000000000000Ninth Grade Literature & Composition01    304135 33926922 510 510L  410L 560L 200CC0A1                                                       111      1 01-161                SUMMER 2017    0619173 MAINX                    500112188           528088048           15712289            500127602           647       88401
3552677011Southwest Georgia             6471050DOUGHERTY COUNTY                   ALBANY HIGH SCHOOL                 SUMMER 9TH GR. LIT.     Rozy        Shida        09  12172000F200000000000000 0000  31000000000 00   A1 E     0                                               0000     00000000000000Ninth Grade Literature & Composition01    496214 51048273 12001200L 1100L1250L111  1 2                                                       211      6346-7757               SUMMER 2017    0619173 MAINX                    500112202           528046996           15712103            500127602           647       88401
3315615152Southwest Georgia             6471050DOUGHERTY COUNTY                   ALBANY HIGH SCHOOL                 SUMMER 9TH GR. LIT.     Davids      Stevens      09  10032001M200000000000000 0000  31000000000 00   A1 E     0                                               0000     00000000000000Ninth Grade Literature & Composition01    450114 46443661 10051005L 905L 1055L100BB0B1                                                       111      3017-4639               SUMMER 2017    0619173 MAINX                    500112296           528088120           15712299            500127602           647       88401
3143708751Southwest Georgia             6471050DOUGHERTY COUNTY                   ALBANY HIGH SCHOOL                 SUMMER 9TH GR. LIT.     Blues       Sam          09  09292001M200000000000000 0000  31000000000 00   B2 E     0                                               0000     00000000000000Ninth Grade Literature & Composition01    436115 45142157 940 940L  840L 990L 211  1 1                                                       111      7 02-1918               SUMMER 2017    0619173 MAINX                    500112300           528088128           15712301            500127602           647       88401
2980948276Southwest Georgia             6471050DOUGHERTY COUNTY                   ALBANY HIGH SCHOOL                 SUMMER 9TH GR. LIT.     Davis       LaToya       09  08092002F200000000000000 0000  31000000000 00   A1 E     0                                               0000     00000000000000Ninth Grade Literature & Composition01    496214 51048273 10751075L 975L 1125L122  2 2                                                       211      8571-9472               SUMMER 2017    0619173 MAINX                    500112206           528088056           15712291            500127602           647       88401
7978772209Southwest Georgia             6471050DOUGHERTY COUNTY                   ALBANY HIGH SCHOOL                 SUMMER 9TH GR. LIT.     Holmes      Robin        09  02122002F200000000000000 0000  31000000000 00   A1 E     0                                               0000     00000000000000Ninth Grade Literature & Composition01    467114 48145365 10751075L 975L 1125L111  1 2                                                       211      3925-5644               SUMMER 2017    0619173 MAINX                    500112306           528088136           15711359            500127602           647       88401
8090132499Southwest Georgia             6471050DOUGHERTY COUNTY                   ALBANY HIGH SCHOOL                 SUMMER 9TH GR. LIT.     Davis       Lori         09  03142002M200000000000000 0000  31000000000 00   B2 E     0                                               0000     00000000000000Ninth Grade Literature & Composition01    474114 48846067 11601160L 1060L1210L200BB1 2                                                       211      1205-2625               SUMMER 2017    0619173 MAINX                    500112226           528088064           15712293            500127602           647       88401