1073860426SOUTHWEST GEORGIA             7840201PELHAM CITY                        PELHAM CITY MIDDLE SCHOOL          7TH ELA PATHWAYS        Jess        Nick        J  0708252004M20000000000100000000   0000000     0          000000     0                                                     10    11  A5 E                               000     000     0000     000                                       1001001000000000         1001001000000000         0000000000000000         0000000000000000              0        432117 449415   830 830L  730L  880L  11111   1    11      1708-3130               446115 461431  11111   1 01-363                                                                                                                Spring 2018    0409181 MAINX                    11540307            556652284           556652328                                                   17032871            17442527                                                    500209982           500209982           500209986                                                   784       884                                                                                                                                                      
8427811454SOUTHWEST GEORGIA             7840201PELHAM CITY                        PELHAM CITY MIDDLE SCHOOL          DAVID                   David       Todd        D  0612232005M20000000000000100000   0000000     0          000000     0                                                     00    11  A5 E                               000     000     0000     000                                       0011001000000000         0011001000000000         0000000000000000         0000000000000000              0        501219 520482   975 975L  875L  1025L 22122   2    11      4732-6348               479211 490468  11111   5035-6650                                                                                                               Spring 2018    0409181 MAINX                    10435645            556941436           556941544                                                   18912781            19495439                                                    500213808           500213808           500213810                                                   784       884                                                                                                                                                      
2328681824SOUTHWEST GEORGIA             7840201PELHAM CITY                        PELHAM CITY MIDDLE SCHOOL          DAVID                   Pallen      Jessi       A  0607022006F20000000000000100000   0000000     0          000000     0                                                     00    11  A1 E                               000     000     0000     000                                       0011101001000000         0011101001000000         0000000000000000         0000000000000000              0        427118 445409   690 690L  590L  740L  11111   2    11      6 01-2418               470111 481459  11111   1304-3426                                                                                                               Spring 2018    0409181 MAINX                    10435667            556941428           556941538                                                   18856193            19376813                                                    500213808           500213808           500213810                                                   784       884                                                                                                                                                      
7620456376SOUTHWEST GEORGIA             7840201PELHAM CITY                        PELHAM CITY MIDDLE SCHOOL          DAVID                   Blue        Sam         D  0611232005M20000000000000100000   0000000     0          000000     0                                                     00    11  B2 E                               000     000     0000     000                                       0011001000000000         0011001000000000         0000000000000000         0000000000000000              0        393120 413373   535 535L  435L  585L  11211   1    11      2 01-228                444113 457431  11111   1 01-301                                                                                                                Spring 2018    0409181 MAINX                    10435709            556920514           556920546                                                   18824371            19380185                                                    500213808           500213808           500213810                                                   784       884                                                                                                                                                      
1929900848SOUTHWEST GEORGIA             7840201PELHAM CITY                        PELHAM CITY MIDDLE SCHOOL          DAVID                   Davis       Sara        N  0701092005F50000000000000100000   0000000     0          000000     0                                                     00    11  B2 E                               000     000     0000     000                                       0011001000000000         0011001000000000         0000000000000000         0000000000000000              0        493217 510476   10701070L 970L  1120L 22222   2    11      2412-4135               501213 514488  21111   5035-6750                                                                                                               Spring 2018    0409181 MAINX                    11540209            556941878           556942004                                                   18922651            19491109                                                    500214050           500214050           500214052                                                   784       884                                                                                                                                                      
8079376425SOUTHWEST GEORGIA             7840201PELHAM CITY                        PELHAM CITY MIDDLE SCHOOL          DAVID                   Rozy        Tom         C  0705112005F50000000000010000000   0000000     0          000000     0                                                     10    11  A5 E                               000     000     0000     000                                       1001001000000000         1001001000000000         0000000000000000         0000000000000000              0        508217 525491   10351035L 935L  1085L 22122   2    12      4226-6146               508213 521495  11121   2510-4636                                                                                                               Spring 2018    0409181 MAINX                    11540243            556941862           556942198                                                   18939205            19491839                                                    500214050           500214050           500214052                                                   784       884                                                                                                                                                      
9073583497SOUTHWEST GEORGIA             7840201PELHAM CITY                        PELHAM CITY MIDDLE SCHOOL          DAVID                   Jackson     Kyle           0703142005M20000000000000100000   0000000     0          000000     0                                                     00    11  B4 E                               000     000     0000     000                                       0011000000000000         0011000000000000         0000000000000000         0000000000000000              0        483217 500466   10351035L 935L  1085L 22222   1    11      3420-5341               508213 521495  22211   6146-7556                                                                                                               Spring 2018    0409181 MAINX                    11540253            556941934           556942210                                                   18935379            19458577                                                    500214050           500214050           500214052                                                   784       884                                                                                                                                                      
9612679169SOUTHWEST GEORGIA             7840201PELHAM CITY                        PELHAM CITY MIDDLE SCHOOL          DAVID                   Williams    Jessica     S  0703082004F20000000001000000000   0000000     0          000000     0                                                     10    11  A1 E                               000     000     0000     000                                       1001101001000000         1001101001000000         0000000000000000         0000000000000000              0        432117 449415   900 900L  800L  950L  11111   2    11      1607-3029               463114 477449  11211   5337-6951                                                                                                               Spring 2018    0409181 MAINX                    11540257            556941870           556942204                                                   18875551            19374145                                                    500214050           500214050           500214052                                                   784       884                                                                                                                                                      
6317607567SOUTHWEST GEORGIA             7840201PELHAM CITY                        PELHAM CITY MIDDLE SCHOOL          DAVID                   Reds        Jay         D  0703262004M20001000000000000000   0000000     0          000000     0                                                     10    11  A1 E                               000     001     0000     000                                       1001101000100000         1001101001000000         0000000000000000         0000000000000000              0        410118 428392   705 705L  605L  755L  11122   2    11      1 01-111                467114 481453  11111   1 01-361                                                                                                                Spring 2018    0409181 MAINX                    11540325            556941854           556942192                                                   18867967            19463237                                                    500214050           500214050           500214052                                                   784       884                                                                                                                                                      
5270789949SOUTHWEST GEORGIA             7840201PELHAM CITY                        PELHAM CITY MIDDLE SCHOOL          DAVID                   Price       Jessica     L  0805142004F50000000000000000000   0000000     0                                                      00000     0          00    1  1A7 E                               000     000                                        000     000     0010001000000000         0000000000000000         0000000000000000         0010001000000000              0        577319 596558   13301330L 1230L 1380L 32133   4    33      9683-9987                                                                                                              534314 548520   2231    6249-7456               Spring 2018    0409181 MAINX                    11788377            556942710                                                   556942862           18916225                                                    20408139            500214072           500214072                                                   500214076           784       884                                                                                                                                                      