5835137109SOUTHWEST GEORGIA             6471050DOUGHERTY COUNTY                   ALBANY HIGH                        WINTER AM LIT AHS       Pallen      Dan         B11  07201995F20000000000010000000  10000000100 01    BUE                                                        0     01000001000000American Literature & Composition   02    4141 16430398 53 820  820L 720L 870L211  0A                                                         1        201-17 8               WINTER 2014    120114  MAINX                    OAS220810436705030         4M002015011050199490020000051647      884  006         030000006647  1050              O1 040009816647  1050                                                                                                              X
3035019509SOUTHWEST GEORGIA             6471050DOUGHERTY COUNTY                   ALBANY HIGH                        WINTER AM LIT AHS       Olson       Sam         S11  07271997M20000000000000000000  10000000000 01    AWE                                                        0     00000000000000American Literature & Composition   02    5253 17542508 801530 1530L1430L1580L100CC3                                                          2       6047-7255               WINTER 2014    120114  MAINX                    OAS220810336678832         4M002015011050199493020000051647      884  006         030000006647  1050              O1 040009816647  1050                                                                                                              X
7447421243SOUTHWEST GEORGIA             6471050DOUGHERTY COUNTY                   ALBANY HIGH                        WINTER AM LIT AHS       Rozy        Art          11  10251995M20000000000000000000  10000000000 01    AUE                                                        0     00000000000000American Literature & Composition   02    4892 16505473 711340 1340L1240L1390L122  1                                                          2       1809-3130               WINTER 2014    120114  MAINX                    OAS220810136678834         4M002015011050199491020000051647      884  006         030000006647  1050              O1 040009816647  1050                                                                                                              X
4831838535SOUTHWEST GEORGIA             6471050DOUGHERTY COUNTY                   ALBANY HIGH                        WINTER AM LIT AHS       Reds        Todd        A12  12291996M20000000000000000000  10000000000 01    AVE                                                        0     00000000000000American Literature & Composition   02    4822 16498466 701270 1270L1170L1320L111  1                                                          2       4837-6049               WINTER 2014    120114  MAINX                    OAS220810236678833         4M002015011050199492020000051647      884  006         030000006647  1050              O1 040009816647  1050                                                                                                              X
6201720669SOUTHWEST GEORGIA             6471050DOUGHERTY COUNTY                   ALBANY HIGH                        WINTER AM LIT AEC       Davis       Denice      T11  05141998F20000000000000000000  10000000000 01    AVE                                                        0     00000000000000American Literature & Composition   02    5022 16518486 741230 1230L1130L1280L132  2                                                          2       2920-4138               WINTER 2014    120114  MAINX                    OAS220810236590360         4M002015011050199495020000051647      884  006         030000006647  1050              O1 040009817647  1050                                                                                                              X
1206293942SOUTHWEST GEORGIA             6471050DOUGHERTY COUNTY                   ALBANY HIGH                        WINTER AM LIT AEC       Williams    Tom         K11  04201998M20000000000000000000  10000000000 01    AWE                                                        0     00000000010000American Literature & Composition   02    4982 16514482 731240 1240L1140L1290L122  0E                                                         2       7763-8765               WINTER 2014    120114  MAINX                    OAS220810336590359         4M002015011050199494020000051647      884  006         030000006647  1050              O1 040009817647  1050                                                                                                              X
1718587104SOUTHWEST GEORGIA             6471050DOUGHERTY COUNTY                   ALBANY HIGH                        WINTER AM LIT CCPLC     Richards    Renee       L10  06221997F20000000000000000000  10000000000 01    BUE                                                        0     00000000000000American Literature & Composition   02    4241 16440408 55 820  820L 720L 870L211  0E                                                         1       4029-5244               WINTER 2014    120114  MAINX                    OAS220810436636731         4M002015011050199498020000051647      884  006         030000006647  1050              O1 040009818647  1050                                                                                                              X
2697525017SOUTHWEST GEORGIA             6471050DOUGHERTY COUNTY                   ALBANY HIGH                        WINTER AM LIT CCPLC     Doyle       Asha        S12  07311997F20000000000000000000  10000000000 01    AUE                                                        0     00000000000000American Literature & Composition   02    4471 15462432 61 990  990L 890L1040L111  0E                                                         1       3525-4742               WINTER 2014    120114  MAINX                    OAS220810136636730         4M002015011050199499020000051647      884  006         030000006647  1050              O1 040009818647  1050                                                                                                              X
1432617613SOUTHWEST GEORGIA             6471050DOUGHERTY COUNTY                   ALBANY HIGH                        WINTER AM LIT CCPLC     Sams        Shida       N10  10231996F20000000000000000000  10000000000 01    AWE                                                        0     00000000000000American Literature & Composition   02    4281 16444412 56 925  925L 825L 975L111  0E                                                         1       1507-2929               WINTER 2014    120114  MAINX                    OAS220810336636728         4M002015011050199497020000051647      884  006         030000006647  1050              O1 040009818647  1050                                                                                                              X
6292461076SOUTHWEST GEORGIA             6471050DOUGHERTY COUNTY                   ALBANY HIGH                        WINTER AM LIT CCPLC     Arms        Tara        K11  08171996F20000000000000000000  10000000000 01    AVE                                                        0     00000000000000American Literature & Composition   02    4681 15483453 661080 1080L 980L1130L122  1                                                          1       5241-6451               WINTER 2014    120114  MAINX                    OAS220810236636729         4M002015011050199496020000051647      884  006         030000006647  1050              O1 040009818647  1050                                                                                                              X