1238801234Southwest Georgia             6471050DOUGHERTY COUNTY                   ALBANY HIGH SCHOOL                 AUGUST MM               Sams        Landra      K11  09211999F200000000000000 0000  10000000000 01   A1 E     0                                               0000     00000000000000Ninth Grade Literature & Composition01    441115 45642658 970 970L  870L 1020L212  0B1                                                       111      1910-3532               FALL MM 2016   0808164 MAINX                    118660              26201876            9122541             122028              647       88401
8047860763Southwest Georgia             6471050DOUGHERTY COUNTY                   ALBANY HIGH SCHOOL                 AUGUST MM               Pallen      Nick         09  11051997M200000000000000 0000  10000000000 01   B2 E     0                                               0000     00000000000000Ninth Grade Literature & Composition01    511215 52649676 13051305L 1205L1355L211  1 3                                                       221      7559-8764               FALL MM 2016   0808164 MAINX                    120410              26286506            9123343             122028              647       88401
3807447679Southwest Georgia             6471050DOUGHERTY COUNTY                   ALBANY HIGH SCHOOL                 AUGUST MM               Williams    Shawna      Q10  04152001F200000000000000 0000  10000000000 01   A1 E     0                                               0000     00000000000000Ninth Grade Literature & Composition01    441115 45642658 970 970L  870L 1020L200AA1 1                                                       111      6549-7958               FALL MM 2016   0808164 MAINX                    117616              26195324            9122369             122028              647       88401
6248278245Southwest Georgia             6471050DOUGHERTY COUNTY                   ALBANY HIGH SCHOOL                 AUGUST MM               Blue        Jake        L09  10012000M200000000000000 0000  10000000000 01   B2 E     0                                               0000     00000000000000Ninth Grade Literature & Composition01    431115 44641656 865 865L  765L 915L 211  1 1                                                       111      3017-4639               FALL MM 2016   0808164 MAINX                    117640              26195372            9122371             122028              647       88401
2152455118Southwest Georgia             6471050DOUGHERTY COUNTY                   ALBANY HIGH SCHOOL                 AUGUST MM               Hemp        Landon      R10  12012000M500000000001000 0000  10000000100 01   A1 E     0                                               0000     01001101000100Ninth Grade Literature & Composition01    437115 45242257 10051005L 905L 1055L200CC0C1                                                       111      1909-3431               FALL MM 2016   0808164 MAINX                    120424              26286538            9123347             122028              647       88401
5810281915Southwest Georgia             6471050DOUGHERTY COUNTY                   ALBANY HIGH SCHOOL                 AUGUST MM               Dune        Josh        D09  06212000M200000000000000 0000  10000000000 01   A1 E     0                                               0000     01001101000100Ninth Grade Literature & Composition01    397117 41438047 695 695L  595L 745L 211  1 1                                                       111      1 01-162                FALL MM 2016   0808164 MAINX                    117644              26195380            9122943             122028              647       88401
4782217005Southwest Georgia             6471050DOUGHERTY COUNTY                   ALBANY HIGH SCHOOL                 AUGUST MM               Davis       Zach        E09  03242001M200000000000000 0000  10000000000 01   A1 E     0                                               0000     00000000000000Ninth Grade Literature & Composition01    418115 43340352 865 865L  765L 915L 200AA0A1                                                       111      1 01-161                FALL MM 2016   0808164 MAINX                    117670              26195550            9122373             122028              647       88401
1826271996Southwest Georgia             6471050DOUGHERTY COUNTY                   ALBANY HIGH SCHOOL                 AUGUST MM               Dunes       Todd        R12  05091998M200000000000000 0000  10000000000 01   A1 E     0                                               0000     00000000000000Ninth Grade Literature & Composition01    450114 46443661 905 905L  805L 955L 222  1 1                                                       111      4 01-1713               FALL MM 2016   0808164 MAINX                    119928              26284688            9122803             122028              647       88401
3029242803Southwest Georgia             6471050DOUGHERTY COUNTY                   ALBANY HIGH SCHOOL                 AUGUST MM               Cox         Daisy       A09  12262000M200000000000000 0000  10000000000 01   B2 E     0                                               0000     00000000000000Ninth Grade Literature & Composition01    532316 54851681 14601460L 1360L1510L222  1 3                                                       231      4933-6549               FALL MM 2016   0808164 MAINX                    117698              26195694            9122383             122028              647       88401
8216065426Southwest Georgia             6471050DOUGHERTY COUNTY                   ALBANY HIGH SCHOOL                 AUGUST MM               Johns       Sara         10  01172000F200000000000000 0000  10000000000 01   A1 E     0                                               0000     00000000000000Ninth Grade Literature & Composition01    428115 44341355 905 905L  805L 955L 200CC0A1                                                       111      2 01-168                FALL MM 2016   0808164 MAINX                    120412              26286514            9123345             122028              647       88401