4511447942SOUTHWEST GEORGIA             6470101DOUGHERTY COUNTY                   ALBANY MIDDLE SCHOOL               Williams, Jessica       Dunes       Tara        A  0602032005F20000000000000000000   0000000     0          000000     0                                                     00    11  B2 E                              0000     000     0000     000                      0                000000000000000          000000000000000          000000000000000          000000000000000               0        453119 472434   700 700L  600L  750L  11222   1    11      3219-4940               510211 521499  11121   4429-6147                                                                                                               Spring 2017    0403171 MAINX                    5198243             522463752           522459052                                                   11919485            12584219                                                    500039068           500039068           500038984                                                   647       884                                                                                                                                                      
2858180121SOUTHWEST GEORGIA             6470101DOUGHERTY COUNTY                   ALBANY MIDDLE SCHOOL               Williams, Jessica       Pallen      Shida       Z  0606242005F20000000000000000000   0000000     0          000000     0                                                     00    11  B4 E                              0000     000     0000     000                      0                000000000000000          000000000000000          000000000000000          000000000000000               0        459119 478440   910 910L  810L  960L  11222   1    11      2210-3933               528312 540516  21222   5237-6851                                                                                                               Spring 2017    0403171 MAINX                    5198263             522463760           522459058                                                   12069521            12661707                                                    500039068           500039068           500038984                                                   647       884                                                                                                                                                      
6331956433SOUTHWEST GEORGIA             6470101DOUGHERTY COUNTY                   ALBANY MIDDLE SCHOOL               Williams, Jessica       Shawn       Shay        K  0609132004F20000000000000000000   0000000     0          000000     0                                                     00    11  B6 E                              0000     000     0000     000                      0                000000000000000          000000000000000          000000000000000          000000000000000               0        499219 518480   10951095L 995L  1145L 32222   1    21      7054-8361               508211 519497  11122   2915-4838                                                                                                               Spring 2017    0403171 MAINX                    5198287             522463768           522459064                                                   12072333            12673141                                                    500039068           500039068           500038984                                                   647       884                                                                                                                                                      
7209131612SOUTHWEST GEORGIA             6470101DOUGHERTY COUNTY                   ALBANY MIDDLE SCHOOL               Williams, Jessica       Clay        Tonya       I  0608252005F20000000000000000000   0000000     0          000000     0                                                     00    11  B8 E                              0000     000     0000     000                      0                000000000000000          000000000000000          000000000000000          000000000000000               0        487219 506468   910 910L  810L  960L  11222   2    11      3924-5644               518212 530506  12131   5439-6952                                                                                                               Spring 2017    0403171 MAINX                    5198297             522463776           522459070                                                   12076087            12686073                                                    500039068           500039068           500038984                                                   647       884                                                                                                                                                      
4937579576SOUTHWEST GEORGIA             6470101DOUGHERTY COUNTY                   ALBANY MIDDLE SCHOOL               Williams, Jessica       Clark       Jade        C  0608302004M20000000000000000000   0000000     0          000000     0                                                     00    11  B10E                              0000     000     0000     000                      0                000000000000000          000000000000000          000000000000000          000000000000000               0        411120 431391   700 700L  600L  750L  11222   1    11      1 01-221                502211 513491  11211   3621-5442                                                                                                               Spring 2017    0403171 MAINX                    5198303             522463784           522459076                                                   12067175            12670965                                                    500039068           500039068           500038984                                                   647       884                                                                                                                                                      
3673449486SOUTHWEST GEORGIA             6470101DOUGHERTY COUNTY                   ALBANY MIDDLE SCHOOL               Williams, Jessica       Cox         Trina       Z  0610082004F20000000000000000000   0000000     0          000000     0                                                     00    11  B12E                              0000     000     0000     000                      0                000000000000000          000000000000000          000000000000000          000000000000000               0        464119 483445   945 945L  845L  995L  22222   0B   11      3723-5443               508211 519497  12221   4934-6550                                                                                                               Spring 2017    0403171 MAINX                    5198349             522463792           522459082                                                   11915063            12652791                                                    500039068           500039068           500038984                                                   647       884                                                                                                                                                      
5241175768SOUTHWEST GEORGIA             6470101DOUGHERTY COUNTY                   ALBANY MIDDLE SCHOOL               Williams, Jessica       Davis       Ana         M  0603102005F20000000000000000000   0000000     0          000000     0                                                     00    11  A1 E                              0000     000     0000     000                      0                000000000000000          000000000000000          000000000000000          000000000000000               0        407120 427387   665 665L  565L  715L  11112   1    11      1 01-221                476211 487465  11111   4227-5946                                                                                                               Spring 2017    0403171 MAINX                    5198355             522463800           522459088                                                   12082467            12684155                                                    500039068           500039068           500038984                                                   647       884                                                                                                                                                      
3637220156SOUTHWEST GEORGIA             6470101DOUGHERTY COUNTY                   ALBANY MIDDLE SCHOOL               Williams, Jessica       Doyle       Zonica      G  0607222004F20000000000000000000   0000000     0          000000     0                                                     00    11  A3 E                              0000     000     0000     000                      0                000000000000000          000000000000000          000000000000000          000000000000000               0        426119 445407   625 625L  525L  675L  11122   2    11      1 01-221                498211 509487  12211   1706-3730                                                                                                               Spring 2017    0403171 MAINX                    5198369             522463808           522459094                                                   12078401            12676901                                                    500039068           500039068           500038984                                                   647       884                                                                                                                                                      
6992826239SOUTHWEST GEORGIA             6470101DOUGHERTY COUNTY                   ALBANY MIDDLE SCHOOL               Williams, Jessica       Johnson     Taylor      A  0608112005F20000000000000000000   0000000     0          000000     0                                                     00    11  A5 E                              0000     000     0000     000                      0                000000000000000          000000000000000          000000000000000          000000000000000               0        522219 541503   960 960L  860L  1010L 22133   3    12      6449-7758               533312 545521  22221   5136-6751                                                                                                               Spring 2017    0403171 MAINX                    5198381             522463816           522459100                                                   12084093            12624999                                                    500039068           500039068           500038984                                                   647       884                                                                                                                                                      
9387550915SOUTHWEST GEORGIA             6470101DOUGHERTY COUNTY                   ALBANY MIDDLE SCHOOL               Williams, Jessica       Blue        Tally       M  0603092005F20000000000000000000   0000000     0          000000     0                                                     00    11  A7 E                              0000     000     0000     000                      0                000000000000000          000000000000000          000000000000000          000000000000000               0        432119 451413   735 735L  635L  785L  11111   2    11      1304-3026               510211 521499  12121   3823-5644                                                                                                               Spring 2017    0403171 MAINX                    5198415             522463824           522459106                                                   12081663            12639283                                                    500039068           500039068           500038984                                                   647       884                                                                                                                                                      