6048424728Southwest Georgia             6470101DOUGHERTY COUNTY                   ALBANY MIDDLE SCHOOL               RICHARDS, CHARLES       Reds        Todd        D  0804292002M20000000000000000000   0000000     0          000000     0          000000     0          00000     0          00    1111A7 E                              0000     000     0000     000     0000     000     0000     000     000000000000000          000000000000000          000000000000000          000000000000000               0        479214 493465   975 975L  875L  1025L 11222   1    11      2615-4137               552314 566538  2322    9588-9884               513218 531495   112     5741-7254               556317 573539   2332    7966-8867               SPRING 2016    0404161 MAINX                    1876411             4304026             4305856             4307248             4308640             2062851             2808625             3599587             3833215             49077               49077               49097               49117               49137               647       884                                                                                                                                                      
2782026461Southwest Georgia             6470101DOUGHERTY COUNTY                   ALBANY MIDDLE SCHOOL               RICHARDS, CHARLES       Pallen      Shida       S  0803292002F20000000000000000000   0000000     0          000000     0          000000     0          00000     0          00    1111B8 E                              0000     000     0000     000     0000     000     0000     000     000000000000000          000000000000000          000000000000000          000000000000000               0        507215 522492   10951095L 995L  1145L 22143   3    11      3422-4941               490212 502478  1111    7258-8362               469117 486452   111     5942-7355               512214 526498   2221    4532-5947               SPRING 2016    0404161 MAINX                    1876249             4303986             4305826             4307218             4308610             2062531             2810359             3597135             3822557             49077               49077               49097               49117               49137               647       884                                                                                                                                                      
1843638282Southwest Georgia             6470101DOUGHERTY COUNTY                   ALBANY MIDDLE SCHOOL               RICHARDS, CHARLES       Davis       Renee       M  0803162002M20000000000000000000   0000000     0          000000     0          000000     0          00000     0          00    1111A5 E                              0000     000     0000     000     0000     000     0000     000     000000000000000          000000000000000          000000000000000          000000000000000               0        488214 502474   10701070L 970L  1120L 22211   1    11      6447-7958               499213 512486  2112    6247-7657               449117 466432   111     7459-8563               528315 543513   2112    6249-7456               SPRING 2016    0404161 MAINX                    1876189             4303938             4305790             4307182             4308574             2061503             2806203             3596495             3828383             49077               49077               49097               49117               49137               647       884                                                                                                                                                      
9159673907Southwest Georgia             6470101DOUGHERTY COUNTY                   ALBANY MIDDLE SCHOOL               RICHARDS, CHARLES       Dune        Jessica     R  0811132001F20000000000000000000   0000000     0          000000     0          000000     0          00000     0          00    1111B8 E                              0000     000     0000     000     0000     000     0000     000     000000000000000          000000000000000          000000000000000          000000000000000               0        516215 531501   11651165L 1065L 1215L 22122   4    11      5236-6851               518212 530506  3211    7562-8564               483217 500466   111     5135-6751               554317 571537   2223    5542-6853               SPRING 2016    0404161 MAINX                    1876581             4304146             4305946             4307338             4308730             2061693             2809517             3601163             3830547             49077               49077               49097               49117               49137               647       884                                                                                                                                                      
8787648954Southwest Georgia             6470101DOUGHERTY COUNTY                   ALBANY MIDDLE SCHOOL               RICHARDS, CHARLES       Coxx        Mary        F  0808182002M10000000000000000001   0000000     0          000000     0          000000     0          00000     0          00    1111B2 E                              0000     000     0000     000     0000     000     0000     000     000000000000000          000000000000000          000000000000000          000000000000000               0        516215 531501   11651165L 1065L 1215L 22123   1    11      7659-8865               502213 515489  2111    7258-8362               464117 481447   111     6954-8261               505214 519491   1121    6147-7356               SPRING 2016    0404161 MAINX                    1876563             4304122             4305928             4307320             4308712             2058891             2806069             3599665             3826747             49077               49077               49097               49117               49137               647       884                                                                                                                                                      
6423595542Southwest Georgia             6470101DOUGHERTY COUNTY                   ALBANY MIDDLE SCHOOL               RICHARDS, CHARLES       Richards    Sam         M  0802132002F20000000000000000000   0000000     0          000000     0          000000     0          00000     0          00    1111A9 E                              0000     000     0000     000     0000     000     0000     000     000000000000000          000000000000000          000000000000000          000000000000000               0        535316 551519   12551255L 1155L 1305L 32223   2    22      9076-9878               510213 523497  2112    5842-7354               513218 531495   211     5741-7254               543316 559527   3221    5946-7255               SPRING 2016    0404161 MAINX                    1876425             4304034             4305862             4307254             4308646             2059181             2808127             3596433             3826527             49077               49077               49097               49117               49137               647       884                                                                                                                                                      
2118660839Southwest Georgia             6470101DOUGHERTY COUNTY                   ALBANY MIDDLE SCHOOL               RICHARDS, CHARLES       Rozy        Ashley      G  0812102000M30000000000000000011   0000000     0          000000     0          000000     0          00000     0          00    1111B4 E                              0000     000     0000     000     0000     000     0000     000     000000000000000          000000000000000          000000000000000          000000000000000               0        536315 551521   12451245L 1145L 1295L 32123   1    22      8367-9470               490212 502478  1112    7156-8361               548320 568528   321     5337-6952               533315 548518   1222    4028-5444               SPRING 2016    0404161 MAINX                    1876221             4303970             4305814             4307206             4308598             2064941             2807751             3599505             3832729             49077               49077               49097               49117               49137               647       884                                                                                                                                                      
6486234938Southwest Georgia             6470101DOUGHERTY COUNTY                   ALBANY MIDDLE SCHOOL               RICHARDS, CHARLES       Sands       Sara        Y  0810092000F30000000000000000001   0000000     0          000000     0          000000     0          00000     0          00    1111B2 E                              0000     000     0000     000     0000     000     0000     000     000000000000000          000000000000000          000000000000000          000000000000000               0        476214 490462   10951095L 995L  1145L 22122   1    11      6548-8058               476213 489463  1111    5741-7354               473117 490456   111     6549-7858               489213 502476   1211    3321-4941               SPRING 2016    0404161 MAINX                    1876429             4304042             4305868             4307260             4308652             2065405             2805657             3598263             3819881             49077               49077               49097               49117               49137               647       884                                                                                                                                                      
9487082972Southwest Georgia             6470101DOUGHERTY COUNTY                   ALBANY MIDDLE SCHOOL               RICHARDS, CHARLES       Harris      Asha        D  0809292002M20000000000000000000   0000000     0          000000     0          000000     0          00000     0          00    1111A1 E                              0000     000     0000     000     0000     000     0000     000     000000000000000          000000000000000          000000000000000          000000000000000               0        488214 502474   975 975L  875L  1025L 11223   2    11      5135-6750               504212 516492  1111    7360-8463               530319 549511   321     9788-9989               554317 571537   2232    6147-7356               SPRING 2016    0404161 MAINX                    1876599             4304162             4305958             4307350             4308742             2059309             2805993             3597849             3820923             49077               49077               49097               49117               49137               647       884                                                                                                                                                      
7104709355Southwest Georgia             6470101DOUGHERTY COUNTY                   ALBANY MIDDLE SCHOOL               RICHARDS, CHARLES       Charles     Tina        S  0807132001F20000000000000000000   0000000     0          000000     0          000000     0          00000     0          00    1111B4 E                              0000     000     0000     000     0000     000     0000     000     000000000000000          000000000000000          000000000000000          000000000000000               0        516215 531501   10951095L 995L  1145L 22132   1    12      4328-5946               480213 493467  1112    5437-7152               454117 471437   111     3017-4839               523215 538508   1221    5340-6651               SPRING 2016    0404161 MAINX                    1876471             4304050             4305874             4307266             4308658             2058941             2808407             3598107             3828585             49077               49077               49097               49117               49137               647       884                                                                                                                                                      