05230320015901101ALAMO HEIGHTS ICAMBRIDGE EL   Barker         Hallie    M         F08052013 000001W000    000000    00    507914            03 0159011019800pzrzfp000                    0   02465262629                                             00    00000  0 000         00000 0  00  00                                                               SS                                                20152M351553ESO       110                         1111111111111111111111112222222222222222            +B++DA++++++++++A++++B+PB+D++C+++++C+C++            BADCBCDAABACBACACAABADCAADAADBCADDABCADD            830L 07404                                                                                                                                      050803052M211471ESO       110                     123243232142132321213412122121                          +++A+CAA+D+P++AB+BP+D+D++PD++C                          ADDBABDBBCDADABAAAACAACDBABCAB                          060600Q                                          111121111112121112211211121111          111020001011120010110201110110               1111111111211111111111121111111111111111     1011001111211111011110110101101111101011                                                                                                                                                                                                                                                                                                                                                                                                                                                                                                                                                                                                                                                                                                                                                                                                                                                                                                                                                                                                                                                                                                                                                                                                                                                                                                                                                                                                                                                                                                                                                                                                                                                                                                                                                                                 830L                                                   600Q                                                                                                                                                                                         30000367 35632967                         B01EC606-1EE6-42ED-B3AE-6A17F497CD4FFA8A196F-79E9-4164-9A51-D02BFEBF121E                                                                                                            00  00                                                                                                                                                                                                                                                                                                                                                                                                                                                                                                                                                                                                                                                   .
05230820015901041ALAMO HEIGHTS IALAMO HEIGHTS JMayfield       Spencer   A645158013M07112008 000001W000    040000    10    501400            08 01590104198003J7ZP9000                    0   04336529159                                             0100  00000  0 000                      0 00                      00000  0 000        00000  0 000       SD SS                                             14172M311707ESO       110                         11111111111111111111111111222222222222222222        DBD++C++DD+B++D++A++DCAA++DBD+AC++++C+B+++BA        CDBAADCACBDABACADBAACADCDBBACACBDBDADBADBBCC        1065L04908                                                                                                                                                                                                                                                                                                                                                                                                                                                                                                      11111111111211111112111111111111111111111111 00011011001011011012000011000100111101011100                                                                                                                                                                                                                                                                                                                     09060703253746ESO       010                                                                         2121411312423114141213331232314212143311            +AB++ABB+BA+P+PA+A+BCP++C+B+DB++A++C++++            ACADBDAADCDDABADBCCABAAAABADCDAACDADACCB            0571121112111112121111212121121112111111111                 1001100010011110101001120101002101101111                                            10040605254000ESO       110                                                                         32134333142432113421141143224232134124                CB+DAB+D+CC++DB++B+++CA++A+DB++BA+++++                ADACBDDCDABBACAAACABCBCAACBCACBABACAAB                059                                                                                                                                                                                                                                                                                        11211111111121221111111221112112111111    00200010100120021011100220100110011111     015901041ESS1016950707 1 1145L                                                                                          015901041ESS1118540807 111165Q                                                                                                                                                               1                                                            650L 735L      1025L1145L1065L                         635Q 1075Q     1090Q     1165Q                                                                                                                  SS0911111005  464577111 0861375Q1            30384319          32245336 31463693       FA3178EC-D7BA-43E6-9CD2-6EA855DF4F02                                    A42492D9-6C8B-466C-8C01-81620FE316299944948F-B930-43E8-81B4-49A9C9268749                                    00000000                                                                                                                                                                                                                                                                                                                                                                                                                                                                                                                                                                                                                                                 .
05230720015901041ALAMO HEIGHTS IALAMO HEIGHTS JHedgepeth      Max       F         M09092009 000001W000    000001    01    501975            07 01590104198063MKPGN000                    0   08587515632                                             00    00000  1 000         00000 1  00  00                                                               SS                                                17182M351690ESO       110                         11111111111111111111111111222222222222222222        ++B+D++C+++CA+A+AB+C+++P+C+D+B+A++++A+BA++AD        ACDABDBDCACACABBCCBDAABADAABCABBDBBDCACDDDCB        1040L05608                                                                                                                                      060803051H221741ESO       010                     21234123243432113234232323242124231232                  +++++B+A+++BBC++++BDDCPCBCBBACA+DD++A+                  DAAAACBDADACABADABABCBAAADCADDCABAABBC                  056945Q 0                                        12112111111111111121112121121112112111  12112010111000111100001000000002002101       11111111111111111111121211111111111111111111 11010110111001010010121110101010111101001100                                                                                                                                                                                                                                                                                                                                                                                                                                                                                                                                                                                                                                                                                                                                                                                                                                                                                                                                                                                                                                                                                                                                                                                                                                                                                                                                                                                           015901041ESS1016290606 0 1025L                                                                                          015901041ESS1015360606 10670Q                                                                                                                                                                1                                                            505L      1095L1025L1040L                              355Q      600Q 670Q 945Q                                                                                                                                                                     30393780 34039085                         727B6150-ED52-4B23-A662-4964674CDF9C69FD68A4-5802-4971-AA49-A02496635DDB                                                                                                            00  00                                                                                                                                                                                                                                                                                                                                                                                                                                                                                                                                                                                                                                                   .
