2996757076SOUTHWEST GEORGIA             7840201PELHAM CITY                        PELHAM CITY MIDDLE SCHOOL          REDS                    Pallen      Samantah    M  0803202003F20000000000000000000   01                     000000     0                                                     00     1     E                              0                0000     000                      0                000000000000000          000000000000000          000000000000000          000000000000000               0                                                                                           463113 476450  1111    5437-7152                                                                                                               Summer 2017    0515172 RTSTX                    7094793                                 527537762                                                                       15665037                                                    500119670                               500119670                                                   784       884                                                                                                                                                      
7401848171SOUTHWEST GEORGIA             7840201PELHAM CITY                        PELHAM CITY MIDDLE SCHOOL          REDS                    Williams    Jessi       C  0805162002M20000000000000000000   01                     000000     0                                                     00     1     E                              0                0000     000                      0                000000000000000          000000000000000          000000000000000          000000000000000               0                                                                                           508213 521495  1121    6853-8060                                                                                                               Summer 2017    0515172 RTSTX                    7094797                                 527537768                                                                       15665039                                                    500119670                               500119670                                                   784       884                                                                                                                                                      
9595103977SOUTHWEST GEORGIA             7840201PELHAM CITY                        PELHAM CITY MIDDLE SCHOOL          REDS                    Davis       Jessica     M  0810182002F20000000000000000000   01                     000000     0                                                     00     1     E                              0                0000     000                      0                000000000000000          000000000000000          000000000000000          000000000000000               0                                                                                           508213 521495  2111    6550-7858                                                                                                               Summer 2017    0515172 RTSTX                    7094819                                 527537786                                                                       15665045                                                    500119670                               500119670                                                   784       884                                                                                                                                                      
7632809767SOUTHWEST GEORGIA             7840201PELHAM CITY                        PELHAM CITY MIDDLE SCHOOL          REDS                    Cox         Tom         S  0808172001M20000000000000000000   01                     000000     0                                                     00     1     E                              0                0000     000                      0                000000000000000          000000000000000          000000000000000          000000000000000               0                                                                                           486213 499473  1111    2206-5034                                                                                                               Summer 2017    0515172 RTSTX                    7094891                                 527537798                                                                       15665047                                                    500119670                               500119670                                                   784       884                                                                                                                                                      
9825779136SOUTHWEST GEORGIA             7840201PELHAM CITY                        PELHAM CITY MIDDLE SCHOOL          REDS                    Rozy        Sam         L  0805232002M20000000000000000000   01                     000000     0                                                     00     1     E                              0                0000     000                      0                000000000000000          000000000000000          000000000000000          000000000000000               0                                                                                           441114 455427  1111    1 01-451                                                                                                                Summer 2017    0515172 RTSTX                    7094901                                 527537804                                                                       15664859                                                    500119670                               500119670                                                   784       884                                                                                                                                                      
6560248747SOUTHWEST GEORGIA             7840201PELHAM CITY                        PELHAM CITY MIDDLE SCHOOL          REDS                    Dudley      Cindy       K  0810162002F20000000000000000000   01                     000000     0                                                     00     1     E                              0                0000     000                      0                000000000000000          000000000000000          000000000000000          000000000000000               0                                                                                           497213 510484  1111    7765-8766                                                                                                               Summer 2017    0515172 RTSTX                    7094929                                 527537816                                                                       15665051                                                    500119670                               500119670                                                   784       884                                                                                                                                                      
2018993003SOUTHWEST GEORGIA             7840201PELHAM CITY                        PELHAM CITY MIDDLE SCHOOL          REDS                    Dudley      James       D  0808152001M20000000000000000000   01                     000000     0                                                     00     1     E                              0                0000     000                      0                000000000000000          000000000000000          000000000000000          000000000000000               0                                                                                           455114 469441  1111    4 01-4514                                                                                                               Summer 2017    0515172 RTSTX                    7094931                                 527628446                                                                       15664887                                                    500120720                               500120720                                                   784       884                                                                                                                                                      
3172793737SOUTHWEST GEORGIA             7840201PELHAM CITY                        PELHAM CITY MIDDLE SCHOOL          PALLEN                  Anderson    Jess        M  0801102003F50000000000000000000   1100000     0          000000     0                                                     00    11  A1 E                              0000     000     0000     000                      0                000000000000000          000000000000000          000000000000000          000000000000000               0        491213 504478   11051105L 1005L 1155L 22           11      6246-7757               490213 503477  1112    7055-8261                                                                                                               Summer 2017    0515172 RTSTX                    7094779             527537672           527537744                                                   15663363            15665033                                                    500119668           500119668           500119670                                                   784       884                                                                                                                                                      
6226591579SOUTHWEST GEORGIA             7840201PELHAM CITY                        PELHAM CITY MIDDLE SCHOOL          PALLEN                  Coy         Kyle        L  0810022001M50000000000000000000   1100000     0          000000     0                                                     00    11  A1 E                              0000     000     0000     000                      0                000000000000000          000000000000000          000000000000000          000000000000000               0        423115 438408   780 780L  680L  830L  11           11      2615-4137               471113 484458  1111    5033-6850                                                                                                               Summer 2017    0515172 RTSTX                    7094781             527537678           527537750                                                   15663365            15664855                                                    500119668           500119668           500119670                                                   784       884                                                                                                                                                      
5955490906SOUTHWEST GEORGIA             7840201PELHAM CITY                        PELHAM CITY MIDDLE SCHOOL          PALLEN                  Oaks        Todd        M  0807182001M20000000000000000000   1100000     0          000000     0                                                     00    11  A1 E                              0000     000     0000     000                      0                000000000000000          000000000000000          000000000000000          000000000000000               0        432114 446418   780 780L  680L  830L  11           11      1607-3029               467113 480454  1111    2106-5033                                                                                                               Summer 2017    0515172 RTSTX                    7094783             527537684           527537756                                                   15663971            15665035                                                    500119668           500119668           500119670                                                   784       884                                                                                                                                                      