2465338315SOUTHWEST GEORGIA             6471050DOUGHERTY COUNTY                   ALBANY HIGH                        EOC CLASS               Pallen      Steve       D10  08071996M200000000000000 0000  10000000000 01    AUE                                                        0     000111010 000 American Literature & Composition   02    3921 17409375 48 775  775L 675L 825L100CC0C                                                         1        101-17 4               SUMMER 2015    0615153 MAINX                    OAS227270244131463         4M002015014050004106020000068647      884  003         030000023647  1050                 040001279647  1050                                                                                                              X
7932054478SOUTHWEST GEORGIA             6471050DOUGHERTY COUNTY                   ALBANY HIGH                        EOC CLASS               Reds        Todd         10  07311997M300000000000000 0000  10000000000 01    AUE                                                        0     000000000 000 American Literature & Composition   02    4611 15476446 641025 1025L 925L1075L122  0B                                                         1       3626-4842               SUMMER 2015    0615153 MAINX                    OAS227270244131331         4M002015014050004107020000068647      884  003         030000023647  1050                 040001279647  1050                                                                                                              X
1137161183SOUTHWEST GEORGIA             6471050DOUGHERTY COUNTY                   ALBANY HIGH                        EOC CLASS               Richards    Sam         M10  04221998F500000000000000 0000  10000000000 01    AUE                                                        0     000000000 000 American Literature & Composition   02    4561 15471441 631140 1140L1040L1190L111  0E                                                         1       4231-5346               SUMMER 2015    0615153 MAINX                    OAS227270244131458         4M002015014050004108020000068647      884  003         030000023647  1050                 040001279647  1050                                                                                                              X
3120182753SOUTHWEST GEORGIA             6471050DOUGHERTY COUNTY                   ALBANY HIGH                        EOC CLASS               Olson       Dan         L11  01071996M200001000000000 0000  10000000100 01    AUE                                                        0     010011011 000 American Literature & Composition   02    3921 17409375 48 825  825L 725L 875L100CC0B                                                         1       1104-2424               SUMMER 2015    0615153 MAINX                    OAS227270244131330         4M002015014050004122020000068647      884  003         030000023647  1050                 040001285647  1050                                                                                                              X
9436012691SOUTHWEST GEORGIA             6471050DOUGHERTY COUNTY                   ALBANY HIGH                        EOC CLASS               Williams    Grace       P11  09271997F500000000000000 0000  10000000000 01    AUE                                                        0     000000000 000 American Literature & Composition   02    5042 17521487 751215 1215L1115L1265L133  2                                                          2       6249-7456               SUMMER 2015    0615153 MAINX                    OAS227270244131332         4M002015014050004126020000068647      884  003         030000023647  1050                 040001285647  1050                                                                                                              X
1292382058SOUTHWEST GEORGIA             6471050DOUGHERTY COUNTY                   ALBANY HIGH                        EOC CLASS               Collins     Emma        J11  01031997F200000000000000 0000  10000000000 01    AUE                                                        0     000000000 000 American Literature & Composition   02    4561 15471441 631065 1065L 965L1115L123  1                                                          1       1608-3029               SUMMER 2015    0615153 MAINX                    OAS227270244131328         4M002015014050004124020000068647      884  003         030000023647  1050                 040001285647  1050                                                                                                              X
8957223053SOUTHWEST GEORGIA             6471050DOUGHERTY COUNTY                   ALBANY HIGH                        EOC CLASS               Davis       Nick        D11  03281997M200000000000000 0000  10000000000 01    AUE                                                        0     000000000 000 American Literature & Composition   02    4421 15457427 59 870  870L 770L 920L122  0A                                                         1       2415-3735               SUMMER 2015    0615153 MAINX                    OAS227270244131333         4M002015014050004125020000068647      884  003         030000023647  1050                 040001285647  1050                                                                                                              X
1608982343SOUTHWEST GEORGIA             6471050DOUGHERTY COUNTY                   ALBANY HIGH                        EOC CLASS               Dunes       Shida       P11  10231996F200000000000000 0000  10000000000 01    AUE                                                        0     000000000 000 American Literature & Composition   02    4141 16430398 53 915  915L 815L 965L100AA0B                                                         1        602-2018               SUMMER 2015    0615153 MAINX                    OAS227270244131459         4M002015014050004123020000068647      884  003         030000023647  1050                 040001285647  1050                                                                                                              X
9607459822SOUTHWEST GEORGIA             6471050DOUGHERTY COUNTY                   ALBANY HIGH                        EOC CLASS               James       Sara        N11  10181997F500000000000000 0000  10000000000 01    AUE                                                        0     000000000 000 American Literature & Composition   02    4031 17420386 50 775  775L 675L 825L100CC0B                                                         1       2920-4138               SUMMER 2015    0615153 MAINX                    OAS227270244131335         4M002015014050004127020000068647      884  003         030000023647  1050                 040001285647  1050                                                                                                              X
2754059881SOUTHWEST GEORGIA             6471050DOUGHERTY COUNTY                   ALBANY HIGH                        EOC CLASS               White       Tara        J11  04131998M200000000000000 0000  10000000000 01    AUE                                                        0     000000000 000 American Literature & Composition   02    3731 19392354 43 670  670L 570L 720L111  0E                                                         1       1104-2525               SUMMER 2015    0615153 MAINX                    OAS227270244131334         4M002015014050004129020000068647      884  003         030000023647  1050                 040001285647  1050                                                                                                              X