042105112118     SIS Gold GoogleGoogle Maple   Gessel         Keith      11817    M06192007 000001W160    000 0     00    11817    1388735550502209061039A0028WBYD000KREBS               0   03285217464                    0    0                   00    00000  0  00        000000 0  00                                                                   SS                                                030809201450ESP       000                         22222223313332212222222111133313313333              ++++AGC++F++C+C+A+CG+F++AGB++G+++HBH+H              AGCHBHDGDJCFBHAFBHDJCJAFDHAJBFCHDGCFCG              700L 020                                                                                                                                        04150804  311741ESP       111                     232321231232324212132312324232421242                    ++++++++++++++++C+C+D+++DJ++++++++++                    AJAGCABJBJCFDHAGBHDHAACJAFDAAHDGAGBH                    076990Q 0                                                                                                                                                                                                                                                                                                                                                                                                                                                                                                                                                                                                                                                                                                                                                                                                                                                                                                                                                                                                                                                                                                                                                                                                                                                                                                                                                                                                                                                                                                                                                                                                                                                                                                                                                                                                                                                                                                                                                                                                             700L                                                   990Q                                                                                                                                                                                                                                                                                                                                                                                                                                                                                                                                                                                                                                                                                                                                                                                                                                                                                                                                                                                                                                                                      .
052108112118     SIS Gold GoogleGoogle Maple   Gilbertson     Leslie     11818    F10272007 001000A100    E00 0     00    11818    1433211030802209160419C0024STPD 00NO GROUP NAME GIVEN 0   08546785996                                               0                                                               00000  0  00                              SD                                                                                                                                                                                                                                                                                                                                                                                                                                                                                                                                                                                                                                                                                                                                                                                                                                                                                                                                                                                                                                                                                                                                                                                         17100906425052ESO       111                                                                         22123132121114121312323141243133143211414134        +++++++++++++J++++++++++++++D+++++++++++++++        DFBJCJCFDFCJDGAJBFCJAGCGDHBFCFCGAJDHAHDFAHBJ        099                                                                                                                                                                                                                                                                                                                                                                                                                                                                                                           220916041ESS1119332 1580L10981                                                                                                                                                      07191642                                                                                                                                                                                                                                                                                                                                                                                                                                                                              850L 1300L1400L1305L     1580L                                   1125Q1200Q                                                                                                                            SS1111141006  52530711120961475Q1                                                                                                                                                                                                                                                                                                                                                                                                                                                                                                                                                                                                                                                                                                                                                                                                                                                                                                   .
052104102118     SIS Gold GoogleGoogle Maple   Gitau          Konald     11819    M07162007 100001H060    000 0     10    11819    1393957310400439071179A003NJ429 00JORDYN BARNARD      0   09249456417                              0              00    00000  0  00        000000 0  00        0000000000                                                 SSS                                               051313311633ESP       111                         133333322122223333133311111222222222                ++++++++++A+++++++++++AFD++++++++++G                DGDFCFDHDGBFCFCFCJAGCGBJAHBHDGCFCHBH                1030L083                                                                                                                                        07110802  281670ESO       111                     3212114123234324312123212321313432                      ++++C++++++JCG+J+++++++G++++++++++                      BJCGAGAJBFAGDHAHCJBHAHDFBABHDHAJBJ                      077880Q                                                                                                                             060814284779ESP       1116                                                                          222222223333333333333333                +++++++++++++++++H+++++H                AGDHDGAHDGCFAHBHDGCFCHDF      097                                                                                                                                                                                                                                                                                                                                                                                                                                                                                                                                                                                                                                                                                                                                                                                                                                                                                                                                                                                                                                                                                                                                                                                                                                                                                                                                                                                                                                                                                                                                                                                                                                                        1030L                                                  880Q                                                                                                                                                                                                                                                                                                                                                                                                                                                                                                                                                                                                                                                                                                                                                                                                                                                                                                                                                                                                                                                                           .
