04210311300      FORT WORTH ISD JO KELLY SPECIAAABRAM         Hannah   BD10001    F06112005 001000A900    000 1     00    10001                2209050269A003M5SJ70000NO GROUP NAME GIVEN    08959784842                                                                                                                                                      NN                                                000000000105 T 0       00                                                                                                                                                                                                                                 00 0000000000000                                                                                    00000000  000114 T 0       00                                                                                                                                                                                                                             00 0000000000000                                                                                                                                                                                                                                                                                                                                                                                                                                                                                                                                                                                                                                                                                                                                                                                                                                                                                                                                                                                                                                                                                                                                                                                                                                                                                                                                                                                                                                                                                                                                                                                                                                                                                                                                                                                                                                                                                                                                                                                                                                                                                                                                                                                                                                                                                                                                                                                                                                                                                                                                                                                                                                                                                                                                                                                                                                                                                                                                                                                                                                                                                                       .
04210311300      FORT WORTH ISD JO KELLY SPECIAAJALA          Sherin    C10002    F11132005 100001H900    000 1     00    10002                2209050269A003M5TNP0000NO GROUP NAME GIVEN    01611373662                                                                                                                                                      NN                                                000000000105 T 0       00                                                                                                                                                                                                                                 00 0000000000000                                                                                    00000000  000114 T 0       00                                                                                                                                                                                                                             00 0000000000000                                                                                                                                                                                                                                                                                                                                                                                                                                                                                                                                                                                                                                                                                                                                                                                                                                                                                                                                                                                                                                                                                                                                                                                                                                                                                                                                                                                                                                                                                                                                                                                                                                                                                                                                                                                                                                                                                                                                                                                                                                                                                                                                                                                                                                                                                                                                                                                                                                                                                                                                                                                                                                                                                                                                                                                                                                                                                                                                                                                                                                                                                                       .
04210411300      FORT WORTH ISD JO KELLY SPECIAAKINSANYA      Joe       D10003    M03212005 100001H900    000 1     00    10003                2209050269C003KTRSG0000NO GROUP NAME GIVEN    02272681263                                                                                                                                                      NN  N                                             000000000100 T 0       00                                                                                                                                                                                                                                 00 0000000000000                                                                                    00000000  000114 T 0       00                                                                                                                                                                                                                             00 0000000000000                                                                                                                                                                                                                                                                                                                                                                                                                                                                                                                                                                                                                                                                                                                                                                                                                                                                                                                    00000000000101 T 0       00                                                                                                                                                                                                                                                                                 00 0000000000000                                                                                                                                                                                                                                                                                                                          220905026  N00010803                                                                                                    220905026  N00011203                                                                                                                                                                                                                                                                                                                                                                                                                                                                                                                                                                                                                                                                                                                                                                                                                                                                                                                                                                                                                                                                                                                                                                                                                                                                                                                                                                                 .
