5152448254Southwest Georgia             6471050DOUGHERTY COUNTY                   ALBANY HIGH SCHOOL                 Kyle-Williams           Pallen      Zach        L09  05191998M200000000000000 0000   0000000000 01   A1 E     0                                               0000     00000000000000Ninth Grade Literature & Composition01    441115 45642658 860 860L  760L 910L 211  0E1                                                       111      3118-4839               SPRING MM 2016 0119161 MAINX                    30664               2457700             408631              12514               647       88401                                                                                                                                                      
6211836341Southwest Georgia             6471050DOUGHERTY COUNTY                   ALBANY HIGH SCHOOL                 Kyle-Williams           Williams    Sam         J09  11271998F200000000000000 0000  10000000000 01   A1 E     0                                               0000     00000000000000Ninth Grade Literature & Composition01    467114 48145365 960 960L  860L 1010L211  1 1                                                       111      4429-6147               SPRING MM 2016 0119161 MAINX                    39296               12985376            419233              15752               647       88401                                                                                                                                                      
1702538621Southwest Georgia             6471050DOUGHERTY COUNTY                   ALBANY HIGH SCHOOL                 Kyle-Williams           Davis       Darian      J09  11011997M200000000000000 0000  10000000000 01   A1 E     0                                               0000     01001101000010Ninth Grade Literature & Composition01    418116 43440252 895 895L  795L 945L 200CC0E1                                                       111      1205-2626               SPRING MM 2016 0119161 MAINX                    39290               12985368            419231              15752               647       88401                                                                                                                                                      
4403009751Southwest Georgia             6471050DOUGHERTY COUNTY                   ALBANY HIGH SCHOOL                 Kyle-Williams           Richards    Nick        I09  04292000M200000000000000 0000  31000000000 00   B1 E     0                                               0000     00000000000000Ninth Grade Literature & Composition01    459114 47344563 10951095L 995L 1145L211  0E2                                                       211      8 03-2120               SPRING MM 2016 0119161 MAINX                    40006               13180564            419437              15990               647       88401                                                                                                                                                      
7285794686Southwest Georgia             6471050DOUGHERTY COUNTY                   ALBANY HIGH SCHOOL                 Kyle-Williams           Dunes       Jessica     D10  11191998F200000000000000 0000   0000000000 01   A1 E     0                                               0000     00000000000000Ninth Grade Literature & Composition01    467114 48145365 960 960L  860L 1010L200AA0E1                                                       111      7559-8764               SPRING MM 2016 0119161 MAINX                    40570               13183392            419685              15990               647       88401                                                                                                                                                      
8597116633Southwest Georgia             6471050DOUGHERTY COUNTY                   ALBANY HIGH SCHOOL                 Kyle-Williams           Cox         Kyle         09  08302000M200000000000000 0000   0000000000 01   B1 E     0                                               0000     00000000000000Ninth Grade Literature & Composition01    446115 46143160 920 920L  820L 970L 200CC2 1                                                       111      1406-2927               SPRING MM 2016 0119161 MAINX                    40002               13180548            419433              15990               647       88401                                                                                                                                                      
7152572534Southwest Georgia             6471050DOUGHERTY COUNTY                   ALBANY HIGH SCHOOL                 Kyle-Williams           Conner      Sonya        12  11111997F200000000000000 0000   0000000000 01   A1 E     0                                               0000     00000000000000Ninth Grade Literature & Composition01    454114 46844062 995 995L  895L 1045L211  0E1                                                       111      7 03-2019               SPRING MM 2016 0119161 MAINX                    40004               13180556            419435              15990               647       88401                                                                                                                                                      
4650521246Southwest Georgia             6471050DOUGHERTY COUNTY                   ALBANY HIGH SCHOOL                 Kyle-Williams           Aces        Shida       Q11  10031995F200000000000000 0000  10000000000 01   B1 E     0                                               0000     00000000000000American Literature & Composition   02    448115 46343361 10751075L 975L 1125L211  1 1                                                       111      2010-3232               SPRING MM 2016 0119161 MAINX                    39298               12985392            419237              15754               647       88402                                                                                                                                                      
5173995084Southwest Georgia             6471050DOUGHERTY COUNTY                   ALBANY HIGH SCHOOL                 Kyle-Williams           Tiger       Todd        K12  12161996M200000000000000 0000  10000000000 01   A1 E     0                                               0000     00000000000000American Literature & Composition   02    391118 40937347 840 840L  740L 890L 100CC0B1                                                       111      6 01-2018               SPRING MM 2016 0119161 MAINX                    30690               12985384            419235              15754               647       88402                                                                                                                                                      
4520527783Southwest Georgia             6471050DOUGHERTY COUNTY                   ALBANY HIGH SCHOOL                 Kyle-Williams           Reds        Tonya       M11  01131996F200000000000000 0000  10000000000 01   A1 E     0                                               0000     00000000000000American Literature & Composition   02    385118 40336746 790 790L  690L 840L 100CC0E1                                                       111      8 02-2221               SPRING MM 2016 0119161 MAINX                    30698               13180310            421915              15754               647       88402                                                                                                                                                      