051907112118     SIS Gold GoogleGoogle Redwood Rey            Alicia     10258    F11292003 100001H160    T00 0     01   010258    12310331207022090504200002YVCKG 00BERRY                   03731851679                    0    0                   00    00000  0  00        000000 0  00        0000000 00                                                 SSS                                               071613361765ESP       1112  105181616E S 006      221222233313331333222222111113333333222222          ++++++++B++FD+++++A+++++++B+++++++++++++C+          AGCGAJCGCFDHAHDGCGDGCGDGAJCJCGAGAJCJBFBHDF          1275L081                                                                                                                                        02050704  181596ESP       0100 005181567E S 006   2142341321323321234324221324232432123432                BH++C+C+++C+++AHBJ++DBCJ++DHCB+JCFBG++++                AGDGAHDHAJBAAHDGAHBFBAAHAHBFBADHBJAJAGBF                038765Q                                                                                                                             100812303802ESP       0105                                                                          222222222222233333333333333333          B+A+C+C+A++++++F+++++F+HD+++C+          CFDFAJBHDGDJAGAGCHDFAHBJCGAJDH053                                                                                                                                                                                                                                                                                                                                                                                                                                                                                                                                                                                                                                                                                                                                                                                                                                                                                                                                                                                                                                                                                                                                                                                                                                                                 220905042ESS1016160606 1 1000L                                                                                          220905042ESS1015670606 00720Q                                                                                                                                                                0                                                                 750L 895L 1000L1275L                                             720Q 765Q                                                                                                                                                                                                                                                                                                                                                                                                                                                                                                                                                                                                                                                                                                                                                                                                                                                                                                                                                                                                                                                            .
061908112118     SIS Gold GoogleGoogle Redwood Ritland        Tom        10259    M09042003 000100B960    C02 0     01   110259    12786782108022090506100003WPKCH000NO GROUP NAME GIVEN     02741826994                                             00    00000  1  10        00000  1  10                                                                   SS                                                020606141467ESO       0001   05181433E S 007                                                                                                                                                                  725L 007                                                                                                                                        03050600  141534ESO       0000 005181528E S 007                                                                                                                                                                           011665Q                                                                                                                                                                                                                                                                                                                                                                                                                                                                                                                                                                                                                                                                                                                                                                                                                                                                                                                                                                                                                                                                                                                                                                                                                                                                                                                           220905061ESS0014350 670L 00042220905061ESS0014500 700L 00052220905061ESS0014510 0002540Q 2220905061ESS0014840 0004590Q 2220905061ESS003240 00202      220905061ESS002997 00062      03040512  00060713  0103040109  0106020110                                                          220905061ESS0014330707   665L                                                                                           220905061ESS0015280707  0660Q                                                             220905061ESS00231107070                                                                            0                                                                                665L 725L                                              660Q 665Q                                                                                                3010                                                                                                                                                                                                                                                                                                                                                                                                                                                                                                                                                                                                                                                                                                                                                                                                                                                                                                                                                   .
051905112118     SIS Gold GoogleGoogle Redwood Rivera         Tamesha    10260    F02102003 100001H960    C50 0     01   010260    1272777230502209052270000256SZK000RETEST                  04384522452                                             00    10010  0  00        000000 0  00                                                                   SS                                                020302071252ESP       0000  005181295E S 004                                                                                                                                                                  335L 001                                                                                                                                        04040301  121430ESP       0001 005181371E S 004                                                                                                                                                                           008505Q                                                                                                                                                                                                                                                                                                                                                                                                                                                                                                                                                                                                                                                                                                                                                                                                                                                                                                                                                                                                                                                                                                                                                                                                                                                                                                                           220905227ESS0013561 525L 00060                              220905227ESS0014171 0006485Q 0                                                                                          04040513            0106030212                                                                      220905227ESS0012950404   415L                                                                                           220905227ESS0013710404 10415Q                                                             220905227ESS00258504040                                                                            0                                                            435L 415L 525L                                              415Q 505Q                                                                                                               5000                                                                                                                                                                                                                                                                                                                                                                                                                                                                                                                                                                                                                                                                                                                                                                                                                                                                                                                                                   .
041905112118     SIS Gold GoogleGoogle Redwood Robinson       Jasmine    10261    F10152003 100001H960    000 0     00   010261    123458449050220905227000076DF38000HUERTA                  08896358639                    00   00                  00    00000  0  00        000000 0  00                                                                   SS                                                051511311619ESP       1102  105181495E S 004      21222213333333111122221313333332222222              A+++++++C++++++HC+++++B++JD+++++++++++              BJDGDFAGDHDGAJDFBHCFAHCJAHCJAGAGCJCFBF              1005L066                                                                                                                                        06120503  261625ESP       1102 105181488E S 004   213421212423212323242332123212423232                    ++++++D++++H++DJA++J+B+++++B+++J++A+                    AHAJDAAJCHBJBHBFDFCGDABHBJBACGAFBFCJ                    048810Q                                                                                                                                                                                                                                                                                                                                                                                                                                                                                                                                                                                                                                                                                                                                                                                                                                                                                                                                                                                                                                                                                                                                                                                                                                                                                                                                                                                                                                                                                                                                                                                                                   057912123ESS1014950404 0 780L                                                                                           057912123ESS1014880404 00595Q                                                             057912123ESS00309504040                                                                            0                                                            1000L780L 1005L                                             595Q 810Q                                                                                                                                                                                                                                                                                                                                                                                                                                                                                                                                                                                                                                                                                                                                                                                                                                                                                                                                                                                                                                                                      .
