5259808509Southwest Georgia             6471050DOUGHERTY COUNTY                   ALBANY HIGH SCHOOL                 SUMMER, SCHOOL 2016     Williams    Toya         09  11292001F200000000000000 0000   0000000000 01   A1 E     0                                               0000     00000000000000Ninth Grade Literature & Composition01    529316 54551381 12751275L 1175L1325L222  1 3                                                       222      7256-8563               SUMMER 2016    0620163 MAINX                    113694              26145914            9109595             280489              647       88401                                                                                                                                                      
4438583055Southwest Georgia             6471050DOUGHERTY COUNTY                   ALBANY HIGH SCHOOL                 SUMMER, SCHOOL 2016     Dune        Fly          09  06182002F200000000000000 0000  40100000000 00   B2 E     0                                               0000     00000000000000Ninth Grade Literature & Composition01    587422 60956592 14951495L 1395L1545L233  3 3                                                       233      9996-9999               SUMMER 2016    0620163 MAINX                    113652              26145806            9111803             280489              647       88401                                                                                                                                                      
6163431944Southwest Georgia             6471050DOUGHERTY COUNTY                   ALBANY HIGH SCHOOL                 SUMMER, SCHOOL 2016     Dune        Kyle        Z09  09192000M200000000000000 0000  31000000000 00   B2 E     0                                               0000     00000000000000Ninth Grade Literature & Composition01    416116 43240052 865 865L  765L 915L 211  0E1                                                       111      1708-3230               SUMMER 2016    0620163 MAINX                    3833641             26114172            9115969             280489              647       88401                                                                                                                                                      
6981034514Southwest Georgia             6471050DOUGHERTY COUNTY                   ALBANY HIGH SCHOOL                 SUMMER, SCHOOL 2016     Reds        Sue         A09  04082000F200000000000000 0000   0000000000 01   A1 E     0                                               0000     00000000000000Ninth Grade Literature & Composition01    534316 55051882 13151315L 1215L1365L232  3 3                                                       222      6751-8059               SUMMER 2016    0620163 MAINX                    113680              26145856            9109589             280489              647       88401                                                                                                                                                      
5683292727Southwest Georgia             6471050DOUGHERTY COUNTY                   ALBANY HIGH SCHOOL                 SUMMER, SCHOOL 2016     Coxx        Troy        V09  06191998M100000000000000 0010  31000000000 00   A1 E     0                                               0000     00101101000100Ninth Grade Literature & Composition01    401117 41838448 780 780L  680L 830L 200CC0C1                                                       111      3 01-169                SUMMER 2016    0620163 MAINX                    3833939             26114212            9108331             280489              647       88401                                                                                                                                                      
7508182537Southwest Georgia             6471050DOUGHERTY COUNTY                   ALBANY HIGH SCHOOL                 SUMMER, SCHOOL 2016     Royal       Tom         J09  07302002F200000000000000 0000  40100000000 00   B2 E     0                                               0000     00000000000000Ninth Grade Literature & Composition01    502215 51748774 11751175L 1075L1225L222  2 2                                                       211      7055-8361               SUMMER 2016    0620163 MAINX                    113688              26145864            9109591             280489              647       88401                                                                                                                                                      
5753436404Southwest Georgia             6471050DOUGHERTY COUNTY                   ALBANY HIGH SCHOOL                 SUMMER, SCHOOL 2016     Pallen      Jessica     S09  03212000F200000000000000 0000  31000000000 00   B2 E     0                                               0000     00000000000000Ninth Grade Literature & Composition01    485214 49947170 10351035L 935L 1085L222  1 1                                                       111      4429-6147               SUMMER 2016    0620163 MAINX                    3834957             26114412            9108333             280489              647       88401                                                                                                                                                      
6358290525Southwest Georgia             6471050DOUGHERTY COUNTY                   ALBANY HIGH SCHOOL                 SUMMER, SCHOOL 2016     Zoe         Shida       J09  04082000F200000000000000 0000   0000000000 01   A1 E     0                                               0000     00000000000000Ninth Grade Literature & Composition01    475214 48946168 10501050L 950L 1100L211  3 2                                                       211      1607-3129               SUMMER 2016    0620163 MAINX                    3835001             26144626            9116357             280489              647       88401                                                                                                                                                      
5638062688Southwest Georgia             6471050DOUGHERTY COUNTY                   ALBANY HIGH SCHOOL                 SUMMER, SCHOOL 2016     Richards    Tara         09  11032001F200000000000000 0000  40100000000 00   B2 E     0                                               0000     00000000000000Ninth Grade Literature & Composition01    494214 50848072 11351135L 1035L1185L232  0E2                                                       211      7055-8361               SUMMER 2016    0620163 MAINX                    113696              26145922            9109597             280489              647       88401                                                                                                                                                      
5454101176Southwest Georgia             6471050DOUGHERTY COUNTY                   ALBANY HIGH SCHOOL                 SUMMER, SCHOOL 2016     Bone        Sam          09  11012001F200000000000000 0000   0000000000 01   A1 E     0                                               0000     00000000000000Ninth Grade Literature & Composition01    658436 69462296 17251725L 1625L1775L233  4 3                                                       233      9892-9993               SUMMER 2016    0620163 MAINX                    113704              26145986            9109609             280489              647       88401                                                                                                                                                      